{
  "_format": "hh-sol-artifact-1",
  "contractName": "Attack",
  "sourceName": "contracts/Attack.sol",
  "abi": [
    {
      "anonymous": false,
      "inputs": [
        {
          "components": [
            {
              "internalType": "uint256",
              "name": "castleId",
              "type": "uint256"
            },
            {
              "internalType": "uint256",
              "name": "hatchTime",
              "type": "uint256"
            },
            {
              "internalType": "uint256",
              "name": "rare",
              "type": "uint256"
            },
            {
              "internalType": "enum NFTMarket.TypeAnt",
              "name": "typeAnt",
              "type": "uint8"
            },
            {
              "internalType": "address payable",
              "name": "owner",
              "type": "address"
            },
            {
              "internalType": "uint256",
              "name": "itemId",
              "type": "uint256"
            }
          ],
          "indexed": true,
          "internalType": "struct NFTMarket.Castle[]",
          "name": "castleIds",
          "type": "tuple[]"
        }
      ],
      "name": "CastleCreated",
      "type": "event"
    },
    {
      "anonymous": false,
      "inputs": [
        {
          "indexed": false,
          "internalType": "address",
          "name": "operator",
          "type": "address"
        },
        {
          "indexed": false,
          "internalType": "address",
          "name": "from",
          "type": "address"
        },
        {
          "indexed": false,
          "internalType": "address",
          "name": "to",
          "type": "address"
        },
        {
          "indexed": false,
          "internalType": "uint256",
          "name": "amount",
          "type": "uint256"
        },
        {
          "indexed": false,
          "internalType": "bytes",
          "name": "userData",
          "type": "bytes"
        },
        {
          "indexed": false,
          "internalType": "bytes",
          "name": "operatorData",
          "type": "bytes"
        }
      ],
      "name": "DoneStuff",
      "type": "event"
    },
    {
      "anonymous": false,
      "inputs": [
        {
          "indexed": true,
          "internalType": "uint256",
          "name": "itemId",
          "type": "uint256"
        },
        {
          "indexed": false,
          "internalType": "uint256",
          "name": "level",
          "type": "uint256"
        },
        {
          "indexed": false,
          "internalType": "uint256",
          "name": "exp",
          "type": "uint256"
        },
        {
          "indexed": false,
          "internalType": "uint256",
          "name": "time",
          "type": "uint256"
        }
      ],
      "name": "LevelUp",
      "type": "event"
    },
    {
      "anonymous": false,
      "inputs": [
        {
          "indexed": true,
          "internalType": "uint256",
          "name": "itemId",
          "type": "uint256"
        }
      ],
      "name": "MarketItemCreated",
      "type": "event"
    },
    {
      "anonymous": false,
      "inputs": [
        {
          "indexed": true,
          "internalType": "uint256",
          "name": "roomId",
          "type": "uint256"
        }
      ],
      "name": "StartBet",
      "type": "event"
    },
    {
      "anonymous": false,
      "inputs": [
        {
          "indexed": true,
          "internalType": "uint256",
          "name": "itemId",
          "type": "uint256"
        },
        {
          "indexed": false,
          "internalType": "uint256",
          "name": "roomId",
          "type": "uint256"
        }
      ],
      "name": "Winner",
      "type": "event"
    },
    {
      "inputs": [],
      "name": "TOKENS_SENDER_INTERFACE_HASH",
      "outputs": [
        {
          "internalType": "bytes32",
          "name": "",
          "type": "bytes32"
        }
      ],
      "stateMutability": "view",
      "type": "function"
    },
    {
      "inputs": [],
      "name": "antToken",
      "outputs": [
        {
          "internalType": "contract IERC777",
          "name": "",
          "type": "address"
        }
      ],
      "stateMutability": "view",
      "type": "function"
    },
    {
      "inputs": [
        {
          "internalType": "uint256",
          "name": "itemId",
          "type": "uint256"
        },
        {
          "internalType": "uint256",
          "name": "_targetId",
          "type": "uint256"
        },
        {
          "internalType": "address",
          "name": "nftContract",
          "type": "address"
        }
      ],
      "name": "attack",
      "outputs": [],
      "stateMutability": "nonpayable",
      "type": "function"
    },
    {
      "inputs": [
        {
          "internalType": "bytes32",
          "name": "interfaceHash",
          "type": "bytes32"
        },
        {
          "internalType": "address",
          "name": "account",
          "type": "address"
        }
      ],
      "name": "canImplementInterfaceForAddress",
      "outputs": [
        {
          "internalType": "bytes32",
          "name": "",
          "type": "bytes32"
        }
      ],
      "stateMutability": "view",
      "type": "function"
    },
    {
      "inputs": [
        {
          "internalType": "address",
          "name": "nftContract",
          "type": "address"
        },
        {
          "internalType": "uint256",
          "name": "tokenId",
          "type": "uint256"
        },
        {
          "internalType": "uint256",
          "name": "price",
          "type": "uint256"
        },
        {
          "internalType": "uint256",
          "name": "exp",
          "type": "uint256"
        },
        {
          "internalType": "uint256",
          "name": "level",
          "type": "uint256"
        }
      ],
      "name": "createBot",
      "outputs": [],
      "stateMutability": "payable",
      "type": "function"
    },
    {
      "inputs": [
        {
          "internalType": "uint256",
          "name": "price",
          "type": "uint256"
        },
        {
          "internalType": "enum NFTMarket.TypeAnt",
          "name": "typeAnt",
          "type": "uint8"
        },
        {
          "internalType": "uint256",
          "name": "number",
          "type": "uint256"
        },
        {
          "internalType": "bool",
          "name": "isRandom",
          "type": "bool"
        }
      ],
      "name": "createCastle",
      "outputs": [],
      "stateMutability": "payable",
      "type": "function"
    },
    {
      "inputs": [
        {
          "internalType": "address",
          "name": "nftContract",
          "type": "address"
        },
        {
          "internalType": "uint256",
          "name": "itemId",
          "type": "uint256"
        }
      ],
      "name": "createMarketSale",
      "outputs": [],
      "stateMutability": "payable",
      "type": "function"
    },
    {
      "inputs": [],
      "name": "fee",
      "outputs": [
        {
          "internalType": "uint256",
          "name": "",
          "type": "uint256"
        }
      ],
      "stateMutability": "view",
      "type": "function"
    },
    {
      "inputs": [],
      "name": "fetchBots",
      "outputs": [
        {
          "components": [
            {
              "internalType": "uint256",
              "name": "itemId",
              "type": "uint256"
            },
            {
              "internalType": "uint256",
              "name": "rare",
              "type": "uint256"
            },
            {
              "internalType": "uint256",
              "name": "level",
              "type": "uint256"
            },
            {
              "internalType": "uint256",
              "name": "readyTime",
              "type": "uint256"
            },
            {
              "internalType": "uint256",
              "name": "exp",
              "type": "uint256"
            },
            {
              "internalType": "uint256",
              "name": "tokenId",
              "type": "uint256"
            },
            {
              "internalType": "uint256",
              "name": "price",
              "type": "uint256"
            },
            {
              "internalType": "address",
              "name": "nftContract",
              "type": "address"
            },
            {
              "internalType": "address payable",
              "name": "seller",
              "type": "address"
            },
            {
              "internalType": "address payable",
              "name": "owner",
              "type": "address"
            },
            {
              "internalType": "bool",
              "name": "sold",
              "type": "bool"
            },
            {
              "internalType": "bool",
              "name": "isBot",
              "type": "bool"
            },
            {
              "internalType": "enum NFTMarket.TypeAnt",
              "name": "typeAnt",
              "type": "uint8"
            },
            {
              "internalType": "uint16",
              "name": "attackCount",
              "type": "uint16"
            }
          ],
          "internalType": "struct NFTMarket.MarketItem[]",
          "name": "",
          "type": "tuple[]"
        }
      ],
      "stateMutability": "view",
      "type": "function"
    },
    {
      "inputs": [
        {
          "internalType": "uint256",
          "name": "castleId",
          "type": "uint256"
        }
      ],
      "name": "fetchDetailCastle",
      "outputs": [
        {
          "components": [
            {
              "internalType": "uint256",
              "name": "castleId",
              "type": "uint256"
            },
            {
              "internalType": "uint256",
              "name": "hatchTime",
              "type": "uint256"
            },
            {
              "internalType": "uint256",
              "name": "rare",
              "type": "uint256"
            },
            {
              "internalType": "enum NFTMarket.TypeAnt",
              "name": "typeAnt",
              "type": "uint8"
            },
            {
              "internalType": "address payable",
              "name": "owner",
              "type": "address"
            },
            {
              "internalType": "uint256",
              "name": "itemId",
              "type": "uint256"
            }
          ],
          "internalType": "struct NFTMarket.Castle",
          "name": "",
          "type": "tuple"
        }
      ],
      "stateMutability": "view",
      "type": "function"
    },
    {
      "inputs": [
        {
          "internalType": "uint256",
          "name": "itemId",
          "type": "uint256"
        }
      ],
      "name": "fetchDetailItem",
      "outputs": [
        {
          "components": [
            {
              "internalType": "uint256",
              "name": "itemId",
              "type": "uint256"
            },
            {
              "internalType": "uint256",
              "name": "rare",
              "type": "uint256"
            },
            {
              "internalType": "uint256",
              "name": "level",
              "type": "uint256"
            },
            {
              "internalType": "uint256",
              "name": "readyTime",
              "type": "uint256"
            },
            {
              "internalType": "uint256",
              "name": "exp",
              "type": "uint256"
            },
            {
              "internalType": "uint256",
              "name": "tokenId",
              "type": "uint256"
            },
            {
              "internalType": "uint256",
              "name": "price",
              "type": "uint256"
            },
            {
              "internalType": "address",
              "name": "nftContract",
              "type": "address"
            },
            {
              "internalType": "address payable",
              "name": "seller",
              "type": "address"
            },
            {
              "internalType": "address payable",
              "name": "owner",
              "type": "address"
            },
            {
              "internalType": "bool",
              "name": "sold",
              "type": "bool"
            },
            {
              "internalType": "bool",
              "name": "isBot",
              "type": "bool"
            },
            {
              "internalType": "enum NFTMarket.TypeAnt",
              "name": "typeAnt",
              "type": "uint8"
            },
            {
              "internalType": "uint16",
              "name": "attackCount",
              "type": "uint16"
            }
          ],
          "internalType": "struct NFTMarket.MarketItem",
          "name": "",
          "type": "tuple"
        }
      ],
      "stateMutability": "view",
      "type": "function"
    },
    {
      "inputs": [],
      "name": "fetchItemsCreated",
      "outputs": [
        {
          "components": [
            {
              "internalType": "uint256",
              "name": "itemId",
              "type": "uint256"
            },
            {
              "internalType": "uint256",
              "name": "rare",
              "type": "uint256"
            },
            {
              "internalType": "uint256",
              "name": "level",
              "type": "uint256"
            },
            {
              "internalType": "uint256",
              "name": "readyTime",
              "type": "uint256"
            },
            {
              "internalType": "uint256",
              "name": "exp",
              "type": "uint256"
            },
            {
              "internalType": "uint256",
              "name": "tokenId",
              "type": "uint256"
            },
            {
              "internalType": "uint256",
              "name": "price",
              "type": "uint256"
            },
            {
              "internalType": "address",
              "name": "nftContract",
              "type": "address"
            },
            {
              "internalType": "address payable",
              "name": "seller",
              "type": "address"
            },
            {
              "internalType": "address payable",
              "name": "owner",
              "type": "address"
            },
            {
              "internalType": "bool",
              "name": "sold",
              "type": "bool"
            },
            {
              "internalType": "bool",
              "name": "isBot",
              "type": "bool"
            },
            {
              "internalType": "enum NFTMarket.TypeAnt",
              "name": "typeAnt",
              "type": "uint8"
            },
            {
              "internalType": "uint16",
              "name": "attackCount",
              "type": "uint16"
            }
          ],
          "internalType": "struct NFTMarket.MarketItem[]",
          "name": "",
          "type": "tuple[]"
        }
      ],
      "stateMutability": "view",
      "type": "function"
    },
    {
      "inputs": [],
      "name": "fetchMarketItems",
      "outputs": [
        {
          "components": [
            {
              "internalType": "uint256",
              "name": "itemId",
              "type": "uint256"
            },
            {
              "internalType": "uint256",
              "name": "rare",
              "type": "uint256"
            },
            {
              "internalType": "uint256",
              "name": "level",
              "type": "uint256"
            },
            {
              "internalType": "uint256",
              "name": "readyTime",
              "type": "uint256"
            },
            {
              "internalType": "uint256",
              "name": "exp",
              "type": "uint256"
            },
            {
              "internalType": "uint256",
              "name": "tokenId",
              "type": "uint256"
            },
            {
              "internalType": "uint256",
              "name": "price",
              "type": "uint256"
            },
            {
              "internalType": "address",
              "name": "nftContract",
              "type": "address"
            },
            {
              "internalType": "address payable",
              "name": "seller",
              "type": "address"
            },
            {
              "internalType": "address payable",
              "name": "owner",
              "type": "address"
            },
            {
              "internalType": "bool",
              "name": "sold",
              "type": "bool"
            },
            {
              "internalType": "bool",
              "name": "isBot",
              "type": "bool"
            },
            {
              "internalType": "enum NFTMarket.TypeAnt",
              "name": "typeAnt",
              "type": "uint8"
            },
            {
              "internalType": "uint16",
              "name": "attackCount",
              "type": "uint16"
            }
          ],
          "internalType": "struct NFTMarket.MarketItem[]",
          "name": "",
          "type": "tuple[]"
        }
      ],
      "stateMutability": "view",
      "type": "function"
    },
    {
      "inputs": [],
      "name": "fetchMyCastles",
      "outputs": [
        {
          "components": [
            {
              "internalType": "uint256",
              "name": "castleId",
              "type": "uint256"
            },
            {
              "internalType": "uint256",
              "name": "hatchTime",
              "type": "uint256"
            },
            {
              "internalType": "uint256",
              "name": "rare",
              "type": "uint256"
            },
            {
              "internalType": "enum NFTMarket.TypeAnt",
              "name": "typeAnt",
              "type": "uint8"
            },
            {
              "internalType": "address payable",
              "name": "owner",
              "type": "address"
            },
            {
              "internalType": "uint256",
              "name": "itemId",
              "type": "uint256"
            }
          ],
          "internalType": "struct NFTMarket.Castle[]",
          "name": "",
          "type": "tuple[]"
        }
      ],
      "stateMutability": "view",
      "type": "function"
    },
    {
      "inputs": [],
      "name": "fetchMyNFTs",
      "outputs": [
        {
          "components": [
            {
              "internalType": "uint256",
              "name": "itemId",
              "type": "uint256"
            },
            {
              "internalType": "uint256",
              "name": "rare",
              "type": "uint256"
            },
            {
              "internalType": "uint256",
              "name": "level",
              "type": "uint256"
            },
            {
              "internalType": "uint256",
              "name": "readyTime",
              "type": "uint256"
            },
            {
              "internalType": "uint256",
              "name": "exp",
              "type": "uint256"
            },
            {
              "internalType": "uint256",
              "name": "tokenId",
              "type": "uint256"
            },
            {
              "internalType": "uint256",
              "name": "price",
              "type": "uint256"
            },
            {
              "internalType": "address",
              "name": "nftContract",
              "type": "address"
            },
            {
              "internalType": "address payable",
              "name": "seller",
              "type": "address"
            },
            {
              "internalType": "address payable",
              "name": "owner",
              "type": "address"
            },
            {
              "internalType": "bool",
              "name": "sold",
              "type": "bool"
            },
            {
              "internalType": "bool",
              "name": "isBot",
              "type": "bool"
            },
            {
              "internalType": "enum NFTMarket.TypeAnt",
              "name": "typeAnt",
              "type": "uint8"
            },
            {
              "internalType": "uint16",
              "name": "attackCount",
              "type": "uint16"
            }
          ],
          "internalType": "struct NFTMarket.MarketItem[]",
          "name": "",
          "type": "tuple[]"
        }
      ],
      "stateMutability": "view",
      "type": "function"
    },
    {
      "inputs": [],
      "name": "getFee",
      "outputs": [
        {
          "internalType": "uint256",
          "name": "",
          "type": "uint256"
        }
      ],
      "stateMutability": "view",
      "type": "function"
    },
    {
      "inputs": [
        {
          "internalType": "address",
          "name": "nftContract",
          "type": "address"
        },
        {
          "internalType": "uint256",
          "name": "castleId",
          "type": "uint256"
        },
        {
          "internalType": "uint256",
          "name": "tokenId",
          "type": "uint256"
        },
        {
          "internalType": "uint256",
          "name": "price",
          "type": "uint256"
        }
      ],
      "name": "growCharacterWithFee",
      "outputs": [],
      "stateMutability": "payable",
      "type": "function"
    },
    {
      "inputs": [
        {
          "internalType": "address",
          "name": "nftContract",
          "type": "address"
        },
        {
          "internalType": "uint256",
          "name": "castleId",
          "type": "uint256"
        },
        {
          "internalType": "uint256",
          "name": "tokenId",
          "type": "uint256"
        }
      ],
      "name": "growCharacterWithoutFee",
      "outputs": [],
      "stateMutability": "payable",
      "type": "function"
    },
    {
      "inputs": [
        {
          "internalType": "address",
          "name": "token",
          "type": "address"
        }
      ],
      "name": "initialize",
      "outputs": [],
      "stateMutability": "nonpayable",
      "type": "function"
    },
    {
      "inputs": [
        {
          "internalType": "address",
          "name": "nftContract",
          "type": "address"
        },
        {
          "internalType": "uint256",
          "name": "itemId",
          "type": "uint256"
        },
        {
          "internalType": "uint256",
          "name": "price",
          "type": "uint256"
        }
      ],
      "name": "resellMarketItem",
      "outputs": [],
      "stateMutability": "payable",
      "type": "function"
    },
    {
      "inputs": [
        {
          "internalType": "address",
          "name": "recipient",
          "type": "address"
        },
        {
          "internalType": "uint256",
          "name": "amount",
          "type": "uint256"
        }
      ],
      "name": "reward",
      "outputs": [],
      "stateMutability": "nonpayable",
      "type": "function"
    },
    {
      "inputs": [
        {
          "internalType": "uint256",
          "name": "itemId",
          "type": "uint256"
        },
        {
          "internalType": "uint256",
          "name": "_targetId",
          "type": "uint256"
        },
        {
          "internalType": "uint256",
          "name": "roomId",
          "type": "uint256"
        },
        {
          "internalType": "uint256",
          "name": "price",
          "type": "uint256"
        }
      ],
      "name": "room",
      "outputs": [],
      "stateMutability": "nonpayable",
      "type": "function"
    },
    {
      "inputs": [
        {
          "internalType": "address",
          "name": "account",
          "type": "address"
        }
      ],
      "name": "senderFor",
      "outputs": [],
      "stateMutability": "nonpayable",
      "type": "function"
    },
    {
      "inputs": [
        {
          "internalType": "uint256",
          "name": "newFee",
          "type": "uint256"
        }
      ],
      "name": "setFee",
      "outputs": [],
      "stateMutability": "nonpayable",
      "type": "function"
    },
    {
      "inputs": [
        {
          "internalType": "address",
          "name": "operator",
          "type": "address"
        },
        {
          "internalType": "address",
          "name": "from",
          "type": "address"
        },
        {
          "internalType": "address",
          "name": "to",
          "type": "address"
        },
        {
          "internalType": "uint256",
          "name": "amount",
          "type": "uint256"
        },
        {
          "internalType": "bytes",
          "name": "userData",
          "type": "bytes"
        },
        {
          "internalType": "bytes",
          "name": "operatorData",
          "type": "bytes"
        }
      ],
      "name": "tokensReceived",
      "outputs": [],
      "stateMutability": "nonpayable",
      "type": "function"
    },
    {
      "inputs": [
        {
          "internalType": "address",
          "name": "operator",
          "type": "address"
        },
        {
          "internalType": "address",
          "name": "from",
          "type": "address"
        },
        {
          "internalType": "address",
          "name": "to",
          "type": "address"
        },
        {
          "internalType": "uint256",
          "name": "amount",
          "type": "uint256"
        },
        {
          "internalType": "bytes",
          "name": "userData",
          "type": "bytes"
        },
        {
          "internalType": "bytes",
          "name": "operatorData",
          "type": "bytes"
        }
      ],
      "name": "tokensToSend",
      "outputs": [],
      "stateMutability": "nonpayable",
      "type": "function"
    }
  ],
  "bytecode": "0x608060405234801561001057600080fd5b50613ee3806100206000396000f3fe6080604052600436106101805760003560e01c806375ab9782116100d1578063c4d66de81161008a578063daaf3d2e11610064578063daaf3d2e14610428578063ddca3f4314610448578063e93ebe4e1461045e578063f064c32e1461047157600080fd5b8063c4d66de8146103d3578063ced72f87146103f3578063d2de64741461040857600080fd5b806375ab9782146103455780637ebd6c7e14610365578063885dcb8b146103875780638eb6ee4a1461039a578063976744ea146103ad578063c23b139e146103c057600080fd5b8063249cb3fa1161013e578063591cbcb611610118578063591cbcb6146102b5578063627024c8146102e2578063669b05321461030f57806369fe0e2d1461032557600080fd5b8063249cb3fa1461023a5780633fe1866f146102685780634ec42e8e1461027d57600080fd5b806223de29146101855780630f08efe0146101a75780631cd93d8b146101d25780631dffdb33146101f2578063202e37401461020557806321670f221461021a575b600080fd5b34801561019157600080fd5b506101a56101a03660046136e8565b610486565b005b3480156101b357600080fd5b506101bc61056f565b6040516101c99190613cbb565b60405180910390f35b3480156101de57600080fd5b506101a56101ed366004613941565b6107c4565b6101a56102003660046137f5565b610850565b34801561021157600080fd5b506101bc610c13565b34801561022657600080fd5b506101a5610235366004613796565b610f12565b34801561024657600080fd5b5061025a610255366004613872565b610f98565b6040519081526020016101c9565b34801561027457600080fd5b506101bc610ff4565b34801561028957600080fd5b5060395461029d906001600160a01b031681565b6040516001600160a01b0390911681526020016101c9565b3480156102c157600080fd5b506102d56102d03660046138a1565b611295565b6040516101c99190613d57565b3480156102ee57600080fd5b506103026102fd3660046138a1565b61134e565b6040516101c99190613d65565b34801561031b57600080fd5b5061025a603b5481565b34801561033157600080fd5b506101a56103403660046138a1565b61147a565b34801561035157600080fd5b506101a56103603660046136e8565b611515565b34801561037157600080fd5b5061037a611542565b6040516101c99190613c6d565b6101a561039536600461382f565b611791565b6101a56103a83660046137c1565b611a0f565b6101a56103bb3660046137c1565b611d14565b6101a56103ce366004613796565b611ffb565b3480156103df57600080fd5b506101a56103ee3660046136b0565b6121eb565b3480156103ff57600080fd5b50603e5461025a565b34801561041457600080fd5b506101a56104233660046136b0565b6123ae565b34801561043457600080fd5b506101a5610443366004613909565b6123e8565b34801561045457600080fd5b5061025a603e5481565b6101a561046c3660046138b9565b612576565b34801561047d57600080fd5b506101bc61297e565b6039546001600160a01b031633146104ef5760405162461bcd60e51b815260206004820152602160248201527f53696d706c65373737526563697069656e743a20496e76616c696420746f6b656044820152603760f91b60648201526084015b60405180910390fd5b6105206040518060400160405280600f81526020016e185b5bdd5b9d08149958d95a5d9959608a1b81525086612c7d565b7fa0a5a35754b3519ae614f00422ac62a6bc4608ccb722963aab00cb48c588ad72888888888888888860405161055d989796959493929190613bdf565b60405180910390a15050505050505050565b6060600061057c60355490565b9050600061058960365490565b6035546105969190613de5565b90506000808267ffffffffffffffff8111156105c257634e487b7160e01b600052604160045260246000fd5b6040519080825280602002602001820160405280156105fb57816020015b6105e8613567565b8152602001906001900390816105e05790505b50905060005b848110156107bb576000603f81610619846001613d9a565b81526020810191909152604001600020600901546001600160a01b031614156107a9576000610649826001613d9a565b6000818152603f602090815260409182902082516101c08101845281548152600182015492810192909252600281015492820192909252600380830154606083015260048301546080830152600583015460a0830152600683015460c083015260078301546001600160a01b0390811660e084015260088401548116610100840152600984015490811661012084015260ff600160a01b820481161515610140850152600160a81b820481161515610160850152949550929391928492610180850192600160b01b909204169081111561073357634e487b7160e01b600052602160045260246000fd5b600381111561075257634e487b7160e01b600052602160045260246000fd5b815260099190910154600160b81b900461ffff16602090910152845185908790811061078e57634e487b7160e01b600052603260045260246000fd5b60209081029190910101526107a4600186613d9a565b945050505b806107b381613dfc565b915050610601565b50949350505050565b60405182907f4b2f0c3ee709d0603b346c8ba926bde8f94c25c3378365e4499803ed2bbe774a90600090a26000848152603f602052604080822085835290822090916108106064612cc2565b9050600061081e8484612d3f565b9050808211610839576108348482858989612df2565b610846565b6108468382868989612df2565b5050505050505050565b600260015414156108735760405162461bcd60e51b81526004016104e690613d20565b60026001818155600085815260406020819052902060038101549181015492015460ff90911691904282116108dd5760405162461bcd60e51b815260206004820152601060248201526f151a1a5cc81959d9c81a185d18da195960821b60448201526064016104e6565b674563918244f400008410156109355760405162461bcd60e51b815260206004820152601a60248201527f466565206d75737420626967676572207468616e203520414e5400000000000060448201526064016104e6565b610943603580546001019055565b600061094e60355490565b600088815260406020818152818320426001808301829055600490920186905583516101c08101855286815292830188905292820181905260608201929092526080810183905260a081018a905260c081018390526001600160a01b038c1660e082015233610100820181905261012082015261014081019190915261016081019190915290915061018081018560038111156109fb57634e487b7160e01b600052602160045260246000fd5b815260006020918201819052838152603f825260409081902083518155918301516001830155820151600282015560608201516003808301919091556080830151600483015560a0830151600583015560c0830151600683015560e08301516007830180546001600160a01b039283166001600160a01b031991821617909155610100850151600885018054918416919092161790556101208401516009840180546101408701516101608801511515600160a81b0260ff60a81b19911515600160a01b026001600160a81b03199093169490951693909317179182168317815561018086015193909260ff60b01b191661ffff60a81b199092169190911790600160b01b908490811115610b2057634e487b7160e01b600052602160045260246000fd5b02179055506101a091909101516009909101805461ffff909216600160b81b0261ffff60b81b19909216919091179055604080518082018252600a81526947726f77436173746c6560b01b602082015260395491516362ad1b8360e01b815290916001600160a01b0316906362ad1b8390610ba790339030908b9087908190600401613b8e565b600060405180830381600087803b158015610bc157600080fd5b505af1158015610bd5573d6000803e3d6000fd5b50506040518492507fb0fa157647569dbff5067473f7dac22c8626454ed05a03568ce3d0858f013c3b9150600090a250506001805550505050505050565b60606000610c2060355490565b905060008060005b83811015610cb95733603f6000610c40846001613d9a565b81526020810191909152604001600020600901546001600160a01b0316148015610c945750603f6000610c74836001613d9a565b8152602081019190915260400160002060090154600160a81b900460ff16155b15610ca757610ca4600184613d9a565b92505b80610cb181613dfc565b915050610c28565b5060008267ffffffffffffffff811115610ce357634e487b7160e01b600052604160045260246000fd5b604051908082528060200260200182016040528015610d1c57816020015b610d09613567565b815260200190600190039081610d015790505b50905060005b848110156107bb5733603f6000610d3a846001613d9a565b81526020810191909152604001600020600901546001600160a01b0316148015610d8e5750603f6000610d6e836001613d9a565b8152602081019190915260400160002060090154600160a81b900460ff16155b15610f00576000610da0826001613d9a565b6000818152603f602090815260409182902082516101c08101845281548152600182015492810192909252600281015492820192909252600380830154606083015260048301546080830152600583015460a0830152600683015460c083015260078301546001600160a01b0390811660e084015260088401548116610100840152600984015490811661012084015260ff600160a01b820481161515610140850152600160a81b820481161515610160850152949550929391928492610180850192600160b01b9092041690811115610e8a57634e487b7160e01b600052602160045260246000fd5b6003811115610ea957634e487b7160e01b600052602160045260246000fd5b815260099190910154600160b81b900461ffff166020909101528451859087908110610ee557634e487b7160e01b600052603260045260246000fd5b6020908102919091010152610efb600186613d9a565b945050505b80610f0a81613dfc565b915050610d22565b60408051808201825260068152651c995dd85c9960d21b60208201526039549151634decdde360e11b815290916001600160a01b031690639bd9bbc690610f6190869086908690600401613c3d565b600060405180830381600087803b158015610f7b57600080fd5b505af1158015610f8f573d6000803e3d6000fd5b50505050505050565b60008281526034602090815260408083206001600160a01b038516845290915281205460ff16610fc9576000610feb565b7fa2ef4600d742022d532d4747cb3547474667d6f13804902513b2ec01c848f4b45b90505b92915050565b6060600061100160355490565b905060008060005b8381101561106b57603f6000611020836001613d9a565b815260200190815260200160002060090160159054906101000a900460ff16151560011515141561105957611056600184613d9a565b92505b8061106381613dfc565b915050611009565b5060008267ffffffffffffffff81111561109557634e487b7160e01b600052604160045260246000fd5b6040519080825280602002602001820160405280156110ce57816020015b6110bb613567565b8152602001906001900390816110b35790505b50905060005b848110156107bb57603f60006110eb836001613d9a565b815260200190815260200160002060090160159054906101000a900460ff161515600115151415611283576000611123826001613d9a565b6000818152603f602090815260409182902082516101c08101845281548152600182015492810192909252600281015492820192909252600380830154606083015260048301546080830152600583015460a0830152600683015460c083015260078301546001600160a01b0390811660e084015260088401548116610100840152600984015490811661012084015260ff600160a01b820481161515610140850152600160a81b820481161515610160850152949550929391928492610180850192600160b01b909204169081111561120d57634e487b7160e01b600052602160045260246000fd5b600381111561122c57634e487b7160e01b600052602160045260246000fd5b815260099190910154600160b81b900461ffff16602090910152845185908790811061126857634e487b7160e01b600052603260045260246000fd5b602090810291909101015261127e600186613d9a565b945050505b8061128d81613dfc565b9150506110d4565b61129d613614565b60008281526040602081815291819020815160c081018352815481526001820154938101939093526002810154918301919091526003808201549192918391606084019160ff169081111561130257634e487b7160e01b600052602160045260246000fd5b600381111561132157634e487b7160e01b600052602160045260246000fd5b8152600382015461010090046001600160a01b031660208201526004909101546040909101529392505050565b611356613567565b6000828152603f602090815260409182902082516101c08101845281548152600182015492810192909252600281015492820192909252600380830154606083015260048301546080830152600583015460a0830152600683015460c083015260078301546001600160a01b0390811660e084015260088401548116610100840152600984015490811661012084015260ff600160a01b820481161515610140850152600160a81b8204811615156101608501528492610180850192600160b01b90049091169081111561143a57634e487b7160e01b600052602160045260246000fd5b600381111561145957634e487b7160e01b600052602160045260246000fd5b815260099190910154600160b81b900461ffff166020909101529392505050565b603c546001600160a01b031633146114ca5760405162461bcd60e51b81526020600482015260136024820152722cb7ba9030b932b713ba1030b71030b236b4b760691b60448201526064016104e6565b60028111156115105760405162461bcd60e51b81526020600482015260126024820152715468652066656520697320746f6f2062696760701b60448201526064016104e6565b603e55565b6105206040518060400160405280600b81526020016a185b5bdd5b9d0814d95b9960aa1b81525086612c7d565b6060600061154f60375490565b905060008060005b838110156115d357600061156c826001613d9a565b60008181526040602081905290206003015490915061010090046001600160a01b0316331480156115ad575060008181526040602081905290206001015442105b156115c0576115bd600185613d9a565b93505b50806115cb81613dfc565b915050611557565b5060008267ffffffffffffffff8111156115fd57634e487b7160e01b600052604160045260246000fd5b60405190808252806020026020018201604052801561163657816020015b611623613614565b81526020019060019003908161161b5790505b50905060005b848110156107bb576000611651826001613d9a565b60008181526040602081905290206003015490915061010090046001600160a01b031633148015611692575060008181526040602081905290206001015442105b1561177e5760008181526040602081815291819020815160c081018352815481526001820154938101939093526002810154918301919091526003808201549192918391606084019160ff16908111156116fc57634e487b7160e01b600052602160045260246000fd5b600381111561171b57634e487b7160e01b600052602160045260246000fd5b8152600382015461010090046001600160a01b03166020820152600490910154604090910152845185908790811061176357634e487b7160e01b600052603260045260246000fd5b6020026020010181905250848061177990613dfc565b955050505b508061178981613dfc565b91505061163c565b600260015414156117b45760405162461bcd60e51b81526004016104e690613d20565b600260015560006117c3612fdd565b905060006117cf613080565b90506117df603580546001019055565b60006117ea60355490565b9050604051806101c00160405280828152602001848152602001858152602001428152602001868152602001888152602001878152602001896001600160a01b03168152602001336001600160a01b03168152602001336001600160a01b0316815260200160011515815260200160011515815260200183600381111561188157634e487b7160e01b600052602160045260246000fd5b815260006020918201819052838152603f825260409081902083518155918301516001830155820151600282015560608201516003808301919091556080830151600483015560a0830151600583015560c0830151600683015560e08301516007830180546001600160a01b039283166001600160a01b031991821617909155610100850151600885018054918416919092161790556101208401516009840180546101408701516101608801511515600160a81b0260ff60a81b19911515600160a01b026001600160a81b03199093169490951693909317179182168317815561018086015193909260ff60b01b191661ffff60a81b199092169190911790600160b01b9084908111156119a657634e487b7160e01b600052602160045260246000fd5b02179055506101a091909101516009909101805461ffff909216600160b81b0261ffff60b81b1990921691909117905560405181907fb0fa157647569dbff5067473f7dac22c8626454ed05a03568ce3d0858f013c3b90600090a2505060018055505050505050565b60026001541415611a325760405162461bcd60e51b81526004016104e690613d20565b600260015580611a845760405162461bcd60e51b815260206004820152601c60248201527f5072696365206d757374206265206174206c656173742031207765690000000060448201526064016104e6565b6000828152603f6020526040908190206005810154600982015460069092015492516331a9108f60e11b8152600481018290529092600160a81b90920460ff1691906001600160a01b03871690636352211e9060240160206040518083038186803b158015611af257600080fd5b505afa158015611b06573d6000803e3d6000fd5b505050506040513d601f19601f82011682018060405250810190611b2a91906136cc565b6001600160a01b0316336001600160a01b031614611b765760405162461bcd60e51b81526020600482015260096024820152682727aa1027aba722a960b91b60448201526064016104e6565b8115611bb15760405162461bcd60e51b815260206004820152600a602482015269125d09dcc81848189bdd60b21b60448201526064016104e6565b60408051808201909152600881526753656c6c4974656d60c01b6020820152603954603e546001600160a01b03909116906362ad1b839033903090606490611bf9908b613dc6565b611c039190613db2565b85866040518663ffffffff1660e01b8152600401611c25959493929190613b8e565b600060405180830381600087803b158015611c3f57600080fd5b505af1158015611c53573d6000803e3d6000fd5b50506040516323b872dd60e01b8152336004820152306024820152604481018790526001600160a01b038a1692506323b872dd9150606401600060405180830381600087803b158015611ca557600080fd5b505af1158015611cb9573d6000803e3d6000fd5b5050506000878152603f602052604090206008810180546001600160a01b031916331790556009810180546001600160a81b0319169055600601869055508115611d0757611d0760366130b7565b5050600180555050505050565b60026001541415611d375760405162461bcd60e51b81526004016104e690613d20565b60026001818155600084815260406020819052902060038101549181015492015460ff909116919042821115611da85760405162461bcd60e51b81526020600482015260166024820152750a8d0d2e640cacece40c8decae6dc4ee840d0c2e8c6d60531b60448201526064016104e6565b611db6603580546001019055565b6000611dc160355490565b600087815260406020818152818320426001808301829055600490920186905583516101c08101855286815292830188905292820181905260608201929092526080810183905260a0810189905260c081018390526001600160a01b038b1660e08201523361010082018190526101208201526101408101919091526101608101919091529091506101808101856003811115611e6e57634e487b7160e01b600052602160045260246000fd5b815260006020918201819052838152603f825260409081902083518155918301516001830155820151600282015560608201516003808301919091556080830151600483015560a0830151600583015560c0830151600683015560e08301516007830180546001600160a01b039283166001600160a01b031991821617909155610100850151600885018054918416919092161790556101208401516009840180546101408701516101608801511515600160a81b0260ff60a81b19911515600160a01b026001600160a81b03199093169490951693909317179182168317815561018086015193909260ff60b01b191661ffff60a81b199092169190911790600160b01b908490811115611f9357634e487b7160e01b600052602160045260246000fd5b02179055506101a091909101516009909101805461ffff909216600160b81b0261ffff60b81b1990921691909117905560405181907fb0fa157647569dbff5067473f7dac22c8626454ed05a03568ce3d0858f013c3b90600090a25050600180555050505050565b6002600154141561201e5760405162461bcd60e51b81526004016104e690613d20565b60026001556000818152603f6020526040902060068101546005820154600990920154909190600160a01b900460ff16801561209c5760405162461bcd60e51b815260206004820152601760248201527f596f752063616e2774206275792074686973206e66742100000000000000000060448201526064016104e6565b60408051808201825260078152664275794974656d60c81b6020808301919091526039546000888152603f909252908390206008015492516362ad1b8360e01b815291926001600160a01b03918216926362ad1b8392612109923392911690899087908190600401613b8e565b600060405180830381600087803b15801561212357600080fd5b505af1158015612137573d6000803e3d6000fd5b50506040516323b872dd60e01b8152306004820152336024820152604481018690526001600160a01b03891692506323b872dd9150606401600060405180830381600087803b15801561218957600080fd5b505af115801561219d573d6000803e3d6000fd5b5050506000868152603f60205260409020600901805460ff60a01b1933166001600160a81b031990911617600160a01b179055506121df603680546001019055565b50506001805550505050565b600054610100900460ff1680612204575060005460ff16155b6122675760405162461bcd60e51b815260206004820152602e60248201527f496e697469616c697a61626c653a20636f6e747261637420697320616c72656160448201526d191e481a5b9a5d1a585b1a5e995960921b60648201526084016104e6565b600054610100900460ff16158015612289576000805461ffff19166101011790555b60388054731820a4b7618bde71dce8cdc73aab6c95905fad246001600160a01b031991821681179092557fb281fc8c12954d22544db45de3159a39272895b169a852b314f9cc762e44c53b603a8190557f29ddb589b1fb5fc7cf394961c1adf5f8c6454761adf795e67fe149f658abe895603b55603980549092166001600160a01b038616179091556040516329965a1d60e01b81523060048201819052602482019290925260448101919091526329965a1d90606401600060405180830381600087803b15801561235a57600080fd5b505af115801561236e573d6000803e3d6000fd5b5050603c80546001600160a01b0319163317905550506006603d556001603e556123986000603355565b80156123aa576000805461ff00191690555b5050565b6123e5603b548260009182526034602090815260408084206001600160a01b0390931684529190529020805460ff19166001179055565b50565b6000838152603f602052604090819020600581015460039091015491516331a9108f60e11b8152600481018290529091906001600160a01b03841690636352211e9060240160206040518083038186803b15801561244557600080fd5b505afa158015612459573d6000803e3d6000fd5b505050506040513d601f19601f8201168201806040525081019061247d91906136cc565b6001600160a01b0316336001600160a01b0316146124d15760405162461bcd60e51b81526020600482015260116024820152702cb7ba9034b9b713ba10309037bbb732b960791b60448201526064016104e6565b428111156125185760405162461bcd60e51b8152602060048201526014602482015273596f757220416e742069736e277420726561647960601b60448201526064016104e6565b6000858152603f602052604080822086835290822090916125396064612cc2565b905060006125478484612d3f565b90508082116125605761255b84828561310e565b61256b565b61256b848285613272565b505050505050505050565b600260015414156125995760405162461bcd60e51b81526004016104e690613d20565b60026001556802b5e3af16b18800008410156125f75760405162461bcd60e51b815260206004820152601d60248201527f5072696365206d75737420626967676572207468616e20353020414e5400000060448201526064016104e6565b60008267ffffffffffffffff81111561262057634e487b7160e01b600052604160045260246000fd5b60405190808252806020026020018201604052801561265957816020015b612646613614565b81526020019060019003908161263e5790505b50905060005b838110156128ab57612675603780546001019055565b600061268060375490565b90506000612691426203f480613d9a565b9050600061269d612fdd565b905087600187151514156126b6576126b3613080565b90505b6040518060c001604052808581526020018481526020018381526020018260038111156126f357634e487b7160e01b600052602160045260246000fd5b8152602001336001600160a01b0316815260200160008152506040600086815260200190815260200160002060008201518160000155602082015181600101556040820151816002015560608201518160030160006101000a81548160ff0219169083600381111561277557634e487b7160e01b600052602160045260246000fd5b021790555060808201518160030160016101000a8154816001600160a01b0302191690836001600160a01b0316021790555060a08201518160040155905050604060008581526020019081526020016000206040518060c00160405290816000820154815260200160018201548152602001600282015481526020016003820160009054906101000a900460ff16600381111561282257634e487b7160e01b600052602160045260246000fd5b600381111561284157634e487b7160e01b600052602160045260246000fd5b8152600382015461010090046001600160a01b03166020820152600490910154604090910152865187908790811061288957634e487b7160e01b600052603260045260246000fd5b60200260200101819052505050505080806128a390613dfc565b91505061265f565b506040805180820182526009815268427579436173746c6560b81b602082015260395491516362ad1b8360e01b815290916001600160a01b0316906362ad1b839061290290339030908b9087908190600401613b8e565b600060405180830381600087803b15801561291c57600080fd5b505af1158015612930573d6000803e3d6000fd5b50505050816040516129429190613b12565b604051908190038120907f4533715d89d19405f7ac016711968422f9b8ad786cca835cbfc20e93525a30fd90600090a250506001805550505050565b6060600061298b60355490565b905060008060005b83811015612a245733603f60006129ab846001613d9a565b81526020810191909152604001600020600801546001600160a01b03161480156129ff5750603f60006129df836001613d9a565b8152602081019190915260400160002060090154600160a81b900460ff16155b15612a1257612a0f600184613d9a565b92505b80612a1c81613dfc565b915050612993565b5060008267ffffffffffffffff811115612a4e57634e487b7160e01b600052604160045260246000fd5b604051908082528060200260200182016040528015612a8757816020015b612a74613567565b815260200190600190039081612a6c5790505b50905060005b848110156107bb5733603f6000612aa5846001613d9a565b81526020810191909152604001600020600801546001600160a01b0316148015612af95750603f6000612ad9836001613d9a565b8152602081019190915260400160002060090154600160a81b900460ff16155b15612c6b576000612b0b826001613d9a565b6000818152603f602090815260409182902082516101c08101845281548152600182015492810192909252600281015492820192909252600380830154606083015260048301546080830152600583015460a0830152600683015460c083015260078301546001600160a01b0390811660e084015260088401548116610100840152600984015490811661012084015260ff600160a01b820481161515610140850152600160a81b820481161515610160850152949550929391928492610180850192600160b01b9092041690811115612bf557634e487b7160e01b600052602160045260246000fd5b6003811115612c1457634e487b7160e01b600052602160045260246000fd5b815260099190910154600160b81b900461ffff166020909101528451859087908110612c5057634e487b7160e01b600052603260045260246000fd5b6020908102919091010152612c66600186613d9a565b945050505b80612c7581613dfc565b915050612a8d565b6123aa8282604051602401612c93929190613cfe565b60408051601f198184030181529190526020810180516001600160e01b03166309710a9d60e41b1790526133dc565b6033805460009182612cd383613dfc565b91905055506000824233603354604051602001612d159392919092835260609190911b6bffffffffffffffffffffffff19166020830152603482015260540190565b6040516020818303038152906040528051906020012060001c612d389190613e38565b9392505050565b600080612d4f84600101546133fd565b6004850154612d5f906001613d9a565b612d699190613dc6565b90506000612d7a84600101546133fd565b6004850154612d8a906001613d9a565b612d949190613dc6565b90506000612da28284613d9a565b612dad846064613dc6565b612db79190613db2565b90506050601481831115612dd157509350610fee92505050565b80831015612de5579450610fee9350505050565b8295505050505050610fee565b6000600a612e01866064613de5565b8560020154612e109190613dc6565b612e1a9190613db2565b6002870154612e2a906005613dc6565b612e349190613d9a565b9050808660040154612e469190613d9a565b60048701556000612e58600283613db2565b905084600401548110612e715760016004860155612e87565b808560040154612e819190613de5565b60048601555b612e9087613456565b612e9985613456565b60408051808201825260058152646172656e6160d81b6020820152603954600880890154908b015493516362ad1b8360e01b815292936001600160a01b03928316936362ad1b8393612ef8938116921690899087908190600401613b8e565b600060405180830381600087803b158015612f1257600080fd5b505af1158015612f26573d6000803e3d6000fd5b505089546040518881529092507f2ec31526458a6f2e01dc51c3e1263edd5327aba8c14343743a9fd4e2a3833950915060200160405180910390a28754600289015460048a0154604080519283526020830191909152428282015251600080516020613e8e8339815191529181900360600190a2855460028701546004880154604080519283526020830191909152428282015251600080516020613e8e8339815191529181900360600190a25050505050505050565b600080612fea6064612cc2565b905060028111612ffc57600691505090565b6003811015801561300e575060078111155b1561301b57600591505090565b6008811015801561302d5750600f8111155b1561303a57600491505090565b6010811015801561304c575060188111155b1561305957600391505090565b6019811015801561306b575060338111155b1561307857600291505090565b600191505090565b600060048161308e82612cc2565b90508060038111156130b057634e487b7160e01b600052602160045260246000fd5b9250505090565b8054806131065760405162461bcd60e51b815260206004820152601b60248201527f436f756e7465723a2064656372656d656e74206f766572666c6f77000000000060448201526064016104e6565b600019019055565b600a61311b836064613de5565b826002015461312a9190613dc6565b6131349190613db2565b6002840154613144906005613dc6565b84600401546131539190613d9a565b61315d9190613d9a565b600484015561316b83613456565b613174836134c6565b60408051808201825260038152623bb4b760e91b6020820152603954600684015492516362ad1b8360e01b815291926001600160a01b03909116916362ad1b83916131c9913091339187908190600401613b8e565b600060405180830381600087803b1580156131e357600080fd5b505af11580156131f7573d6000803e3d6000fd5b5050855460028701546004880154604080519283526020830191909152428282015251919350600080516020613e8e833981519152925081900360600190a28354604051600081527f2ec31526458a6f2e01dc51c3e1263edd5327aba8c14343743a9fd4e2a38339509060200160405180910390a250505050565b60006002600a613283856064613de5565b84600201546132929190613dc6565b61329c9190613db2565b60028601546132ac906005613dc6565b6132b69190613d9a565b6132c09190613db2565b9050836004015481106132d957600160048501556132ef565b8084600401546132e99190613de5565b60048501555b6132f884613456565b613301846134c6565b6040805180820190915260048152631b1bdcdd60e21b602082015260395460068401546001600160a01b03909116906362ad1b83903390309061334690600290613db2565b85866040518663ffffffff1660e01b8152600401613368959493929190613b8e565b600060405180830381600087803b15801561338257600080fd5b505af1158015613396573d6000803e3d6000fd5b5050865460028801546004890154604080519283526020830191909152428282015251919350600080516020613e8e833981519152925081900360600190a25050505050565b80516a636f6e736f6c652e6c6f67602083016000808483855afa5050505050565b600080600261340d846001613d9a565b6134179190613db2565b90508291505b81811015613450579050806002816134358186613db2565b61343f9190613d9a565b6134499190613db2565b905061341d565b50919050565b610fa081600401541061346d576006600282015550565b61015e816004015410613484576005600282015550565b6107d081600401541061349b576004600282015550565b61015e8160040154106134b2576003600282015550565b60648160040154106123e557600290810155565b60098101546000906134e490600160b81b900461ffff166001613d74565b600983015490915061350290600160b81b900461ffff166001613d74565b60098301805461ffff92909216600160b81b0261ffff60b81b19909216919091179055613530600282613e17565b61ffff166123aa57613545826001015461354e565b60038301555050565b600061355d8262015180613db2565b610fee9042613d9a565b604051806101c001604052806000815260200160008152602001600081526020016000815260200160008152602001600081526020016000815260200160006001600160a01b0316815260200160006001600160a01b0316815260200160006001600160a01b031681526020016000151581526020016000151581526020016000600381111561360757634e487b7160e01b600052602160045260246000fd5b8152600060209091015290565b6040518060c001604052806000815260200160008152602001600081526020016000600381111561365557634e487b7160e01b600052602160045260246000fd5b815260006020820181905260409091015290565b60008083601f84011261367a578182fd5b50813567ffffffffffffffff811115613691578182fd5b6020830191508360208285010111156136a957600080fd5b9250929050565b6000602082840312156136c1578081fd5b8135612d3881613e78565b6000602082840312156136dd578081fd5b8151612d3881613e78565b60008060008060008060008060c0898b031215613703578384fd5b883561370e81613e78565b9750602089013561371e81613e78565b9650604089013561372e81613e78565b955060608901359450608089013567ffffffffffffffff80821115613751578586fd5b61375d8c838d01613669565b909650945060a08b0135915080821115613775578384fd5b506137828b828c01613669565b999c989b5096995094979396929594505050565b600080604083850312156137a8578182fd5b82356137b381613e78565b946020939093013593505050565b6000806000606084860312156137d5578283fd5b83356137e081613e78565b95602085013595506040909401359392505050565b6000806000806080858703121561380a578384fd5b843561381581613e78565b966020860135965060408601359560600135945092505050565b600080600080600060a08688031215613846578081fd5b853561385181613e78565b97602087013597506040870135966060810135965060800135945092505050565b60008060408385031215613884578182fd5b82359150602083013561389681613e78565b809150509250929050565b6000602082840312156138b2578081fd5b5035919050565b600080600080608085870312156138ce578384fd5b843593506020850135600481106138e3578384fd5b925060408501359150606085013580151581146138fe578182fd5b939692955090935050565b60008060006060848603121561391d578283fd5b8335925060208401359150604084013561393681613e78565b809150509250925092565b60008060008060808587031215613956578182fd5b5050823594602084013594506040840135936060013592509050565b81835281816020850137506000828201602090810191909152601f909101601f19169091010190565b60008151808452815b818110156139c0576020818501810151868301820152016139a4565b818111156139d15782602083870101525b50601f01601f19169290920160200192915050565b60048110613a0457634e487b7160e01b600052602160045260246000fd5b9052565b8051825260208101516020830152604081015160408301526060810151613a3260608401826139e6565b506080818101516001600160a01b03169083015260a090810151910152565b805182526020810151602083015260408101516040830152606081015160608301526080810151608083015260a081015160a083015260c081015160c083015260e0810151613aab60e08401826001600160a01b03169052565b50610100818101516001600160a01b03908116918401919091526101208083015190911690830152610140808201511515908301526101608082015115159083015261018080820151613b00828501826139e6565b50506101a09081015161ffff16910152565b815160009082906020808601845b83811015613b8257815180518652838101518487015260408082015181880152506060613b52818801828401516139e6565b506080818101516001600160a01b03169087015260a0908101519086015260c09094019390820190600101613b20565b50929695505050505050565b6001600160a01b038681168252851660208201526040810184905260a060608201819052600090613bc19083018561399b565b8281036080840152613bd3818561399b565b98975050505050505050565b6001600160a01b0389811682528881166020830152871660408201526060810186905260c060808201819052600090613c1b9083018688613972565b82810360a0840152613c2e818587613972565b9b9a5050505050505050505050565b60018060a01b0384168152826020820152606060408201526000613c64606083018461399b565b95945050505050565b6020808252825182820181905260009190848201906040850190845b81811015613caf57613c9c838551613a08565b9284019260c09290920191600101613c89565b50909695505050505050565b6020808252825182820181905260009190848201906040850190845b81811015613caf57613cea838551613a51565b928401926101c09290920191600101613cd7565b604081526000613d11604083018561399b565b90508260208301529392505050565b6020808252601f908201527f5265656e7472616e637947756172643a207265656e7472616e742063616c6c00604082015260600190565b60c08101610fee8284613a08565b6101c08101610fee8284613a51565b600061ffff808316818516808303821115613d9157613d91613e4c565b01949350505050565b60008219821115613dad57613dad613e4c565b500190565b600082613dc157613dc1613e62565b500490565b6000816000190483118215151615613de057613de0613e4c565b500290565b600082821015613df757613df7613e4c565b500390565b6000600019821415613e1057613e10613e4c565b5060010190565b600061ffff80841680613e2c57613e2c613e62565b92169190910692915050565b600082613e4757613e47613e62565b500690565b634e487b7160e01b600052601160045260246000fd5b634e487b7160e01b600052601260045260246000fd5b6001600160a01b03811681146123e557600080fdfee893fbdc74096937671dd36ba9c1960d9309176b632cb802c71cb3d75304b066a26469706673582212205b188adf8763406e320c3dcfb6d2a02353b3b019102abfa1fe81e5b5730ac99f64736f6c63430008040033",
  "linkReferences": {},
  "deployedLinkReferences": {}
}