{
  "_format": "hh-sol-artifact-1",
  "contractName": "ANTToken",
  "sourceName": "contracts/ANTToken.sol",
  "abi": [
    {
      "anonymous": false,
      "inputs": [
        {
          "indexed": true,
          "internalType": "address",
          "name": "owner",
          "type": "address"
        },
        {
          "indexed": true,
          "internalType": "address",
          "name": "spender",
          "type": "address"
        },
        {
          "indexed": false,
          "internalType": "uint256",
          "name": "value",
          "type": "uint256"
        }
      ],
      "name": "Approval",
      "type": "event"
    },
    {
      "anonymous": false,
      "inputs": [
        {
          "indexed": true,
          "internalType": "address",
          "name": "operator",
          "type": "address"
        },
        {
          "indexed": true,
          "internalType": "address",
          "name": "tokenHolder",
          "type": "address"
        }
      ],
      "name": "AuthorizedOperator",
      "type": "event"
    },
    {
      "anonymous": false,
      "inputs": [
        {
          "indexed": true,
          "internalType": "address",
          "name": "operator",
          "type": "address"
        },
        {
          "indexed": true,
          "internalType": "address",
          "name": "from",
          "type": "address"
        },
        {
          "indexed": false,
          "internalType": "uint256",
          "name": "amount",
          "type": "uint256"
        },
        {
          "indexed": false,
          "internalType": "bytes",
          "name": "data",
          "type": "bytes"
        },
        {
          "indexed": false,
          "internalType": "bytes",
          "name": "operatorData",
          "type": "bytes"
        }
      ],
      "name": "Burned",
      "type": "event"
    },
    {
      "anonymous": false,
      "inputs": [
        {
          "indexed": true,
          "internalType": "address",
          "name": "operator",
          "type": "address"
        },
        {
          "indexed": true,
          "internalType": "address",
          "name": "to",
          "type": "address"
        },
        {
          "indexed": false,
          "internalType": "uint256",
          "name": "amount",
          "type": "uint256"
        },
        {
          "indexed": false,
          "internalType": "bytes",
          "name": "data",
          "type": "bytes"
        },
        {
          "indexed": false,
          "internalType": "bytes",
          "name": "operatorData",
          "type": "bytes"
        }
      ],
      "name": "Minted",
      "type": "event"
    },
    {
      "anonymous": false,
      "inputs": [
        {
          "indexed": true,
          "internalType": "address",
          "name": "operator",
          "type": "address"
        },
        {
          "indexed": true,
          "internalType": "address",
          "name": "tokenHolder",
          "type": "address"
        }
      ],
      "name": "RevokedOperator",
      "type": "event"
    },
    {
      "anonymous": false,
      "inputs": [
        {
          "indexed": true,
          "internalType": "address",
          "name": "operator",
          "type": "address"
        },
        {
          "indexed": true,
          "internalType": "address",
          "name": "from",
          "type": "address"
        },
        {
          "indexed": true,
          "internalType": "address",
          "name": "to",
          "type": "address"
        },
        {
          "indexed": false,
          "internalType": "uint256",
          "name": "amount",
          "type": "uint256"
        },
        {
          "indexed": false,
          "internalType": "bytes",
          "name": "data",
          "type": "bytes"
        },
        {
          "indexed": false,
          "internalType": "bytes",
          "name": "operatorData",
          "type": "bytes"
        }
      ],
      "name": "Sent",
      "type": "event"
    },
    {
      "anonymous": false,
      "inputs": [
        {
          "indexed": true,
          "internalType": "address",
          "name": "from",
          "type": "address"
        },
        {
          "indexed": true,
          "internalType": "address",
          "name": "to",
          "type": "address"
        },
        {
          "indexed": false,
          "internalType": "uint256",
          "name": "value",
          "type": "uint256"
        }
      ],
      "name": "Transfer",
      "type": "event"
    },
    {
      "inputs": [
        {
          "internalType": "address",
          "name": "holder",
          "type": "address"
        },
        {
          "internalType": "address",
          "name": "spender",
          "type": "address"
        }
      ],
      "name": "allowance",
      "outputs": [
        {
          "internalType": "uint256",
          "name": "",
          "type": "uint256"
        }
      ],
      "stateMutability": "view",
      "type": "function"
    },
    {
      "inputs": [
        {
          "internalType": "address",
          "name": "spender",
          "type": "address"
        },
        {
          "internalType": "uint256",
          "name": "value",
          "type": "uint256"
        }
      ],
      "name": "approve",
      "outputs": [
        {
          "internalType": "bool",
          "name": "",
          "type": "bool"
        }
      ],
      "stateMutability": "nonpayable",
      "type": "function"
    },
    {
      "inputs": [
        {
          "internalType": "address",
          "name": "operator",
          "type": "address"
        }
      ],
      "name": "authorizeOperator",
      "outputs": [],
      "stateMutability": "nonpayable",
      "type": "function"
    },
    {
      "inputs": [
        {
          "internalType": "address",
          "name": "tokenHolder",
          "type": "address"
        }
      ],
      "name": "balanceOf",
      "outputs": [
        {
          "internalType": "uint256",
          "name": "",
          "type": "uint256"
        }
      ],
      "stateMutability": "view",
      "type": "function"
    },
    {
      "inputs": [
        {
          "internalType": "uint256",
          "name": "amount",
          "type": "uint256"
        },
        {
          "internalType": "bytes",
          "name": "data",
          "type": "bytes"
        }
      ],
      "name": "burn",
      "outputs": [],
      "stateMutability": "nonpayable",
      "type": "function"
    },
    {
      "inputs": [],
      "name": "decimals",
      "outputs": [
        {
          "internalType": "uint8",
          "name": "",
          "type": "uint8"
        }
      ],
      "stateMutability": "pure",
      "type": "function"
    },
    {
      "inputs": [],
      "name": "defaultOperators",
      "outputs": [
        {
          "internalType": "address[]",
          "name": "",
          "type": "address[]"
        }
      ],
      "stateMutability": "view",
      "type": "function"
    },
    {
      "inputs": [],
      "name": "granularity",
      "outputs": [
        {
          "internalType": "uint256",
          "name": "",
          "type": "uint256"
        }
      ],
      "stateMutability": "view",
      "type": "function"
    },
    {
      "inputs": [],
      "name": "initialize",
      "outputs": [],
      "stateMutability": "nonpayable",
      "type": "function"
    },
    {
      "inputs": [
        {
          "internalType": "address",
          "name": "operator",
          "type": "address"
        },
        {
          "internalType": "address",
          "name": "tokenHolder",
          "type": "address"
        }
      ],
      "name": "isOperatorFor",
      "outputs": [
        {
          "internalType": "bool",
          "name": "",
          "type": "bool"
        }
      ],
      "stateMutability": "view",
      "type": "function"
    },
    {
      "inputs": [],
      "name": "name",
      "outputs": [
        {
          "internalType": "string",
          "name": "",
          "type": "string"
        }
      ],
      "stateMutability": "view",
      "type": "function"
    },
    {
      "inputs": [
        {
          "internalType": "address",
          "name": "account",
          "type": "address"
        },
        {
          "internalType": "uint256",
          "name": "amount",
          "type": "uint256"
        },
        {
          "internalType": "bytes",
          "name": "data",
          "type": "bytes"
        },
        {
          "internalType": "bytes",
          "name": "operatorData",
          "type": "bytes"
        }
      ],
      "name": "operatorBurn",
      "outputs": [],
      "stateMutability": "nonpayable",
      "type": "function"
    },
    {
      "inputs": [
        {
          "internalType": "address",
          "name": "sender",
          "type": "address"
        },
        {
          "internalType": "address",
          "name": "recipient",
          "type": "address"
        },
        {
          "internalType": "uint256",
          "name": "amount",
          "type": "uint256"
        },
        {
          "internalType": "bytes",
          "name": "data",
          "type": "bytes"
        },
        {
          "internalType": "bytes",
          "name": "operatorData",
          "type": "bytes"
        }
      ],
      "name": "operatorSend",
      "outputs": [],
      "stateMutability": "nonpayable",
      "type": "function"
    },
    {
      "inputs": [
        {
          "internalType": "address",
          "name": "operator",
          "type": "address"
        }
      ],
      "name": "revokeOperator",
      "outputs": [],
      "stateMutability": "nonpayable",
      "type": "function"
    },
    {
      "inputs": [
        {
          "internalType": "address",
          "name": "recipient",
          "type": "address"
        },
        {
          "internalType": "uint256",
          "name": "amount",
          "type": "uint256"
        },
        {
          "internalType": "bytes",
          "name": "data",
          "type": "bytes"
        }
      ],
      "name": "send",
      "outputs": [],
      "stateMutability": "nonpayable",
      "type": "function"
    },
    {
      "inputs": [],
      "name": "symbol",
      "outputs": [
        {
          "internalType": "string",
          "name": "",
          "type": "string"
        }
      ],
      "stateMutability": "view",
      "type": "function"
    },
    {
      "inputs": [],
      "name": "totalSupply",
      "outputs": [
        {
          "internalType": "uint256",
          "name": "",
          "type": "uint256"
        }
      ],
      "stateMutability": "view",
      "type": "function"
    },
    {
      "inputs": [
        {
          "internalType": "address",
          "name": "recipient",
          "type": "address"
        },
        {
          "internalType": "uint256",
          "name": "amount",
          "type": "uint256"
        }
      ],
      "name": "transfer",
      "outputs": [
        {
          "internalType": "bool",
          "name": "",
          "type": "bool"
        }
      ],
      "stateMutability": "nonpayable",
      "type": "function"
    },
    {
      "inputs": [
        {
          "internalType": "address",
          "name": "holder",
          "type": "address"
        },
        {
          "internalType": "address",
          "name": "recipient",
          "type": "address"
        },
        {
          "internalType": "uint256",
          "name": "amount",
          "type": "uint256"
        }
      ],
      "name": "transferFrom",
      "outputs": [
        {
          "internalType": "bool",
          "name": "",
          "type": "bool"
        }
      ],
      "stateMutability": "nonpayable",
      "type": "function"
    }
  ],
  "bytecode": "0x608060405234801561001057600080fd5b50611fbf806100206000396000f3fe608060405234801561001057600080fd5b50600436106101215760003560e01c80638129fc1c116100ad578063d95b637111610071578063d95b63711461023e578063dd62ed3e14610251578063fad8b32a1461028a578063fc673c4f1461029d578063fe9d9303146102b057600080fd5b80638129fc1c146101f5578063959b8c3f146101fd57806395d89b41146102105780639bd9bbc614610218578063a9059cbb1461022b57600080fd5b806323b872dd116100f457806323b872dd1461018e578063313ce567146101a1578063556f0dc7146101b057806362ad1b83146101b757806370a08231146101cc57600080fd5b806306e485381461012657806306fdde0314610144578063095ea7b31461015957806318160ddd1461017c575b600080fd5b61012e6102c3565b60405161013b9190611c46565b60405180910390f35b61014c610325565b60405161013b9190611c93565b61016c610167366004611a5d565b6103ae565b604051901515815260200161013b565b6034545b60405190815260200161013b565b61016c61019c36600461198d565b6103c8565b6040516012815260200161013b565b6001610180565b6101ca6101c53660046119cd565b610591565b005b6101806101da36600461191d565b6001600160a01b031660009081526033602052604090205490565b6101ca6105cd565b6101ca61020b36600461191d565b6106e6565b61014c610804565b6101ca610226366004611a88565b610813565b61016c610239366004611a5d565b610836565b61016c61024c366004611955565b6108e9565b61018061025f366004611955565b6001600160a01b039182166000908152603b6020908152604080832093909416825291909152205490565b6101ca61029836600461191d565b61098b565b6101ca6102ab366004611adf565b610aa7565b6101ca6102be366004611b5c565b610adf565b6060603780548060200260200160405190810160405280929190818152602001828054801561031b57602002820191906000526020600020905b81546001600160a01b031681526001909101906020018083116102fd575b5050505050905090565b60606035805461033490611ef2565b80601f016020809104026020016040519081016040528092919081815260200182805461036090611ef2565b801561031b5780601f106103825761010080835404028352916020019161031b565b820191906000526020600020905b81548152906001019060200180831161039057509395945050505050565b6000336103bc818585610afe565b60019150505b92915050565b60006001600160a01b0383166103f95760405162461bcd60e51b81526004016103f090611cf4565b60405180910390fd5b6001600160a01b03841661045e5760405162461bcd60e51b815260206004820152602660248201527f4552433737373a207472616e736665722066726f6d20746865207a65726f206160448201526564647265737360d01b60648201526084016103f0565b600033905061048f818686866040518060200160405280600081525060405180602001604052806000815250610c25565b6104bb818686866040518060200160405280600081525060405180602001604052806000815250610d5c565b6001600160a01b038086166000908152603b6020908152604080832093851683529290522054838110156105435760405162461bcd60e51b815260206004820152602960248201527f4552433737373a207472616e7366657220616d6f756e74206578636565647320604482015268616c6c6f77616e636560b81b60648201526084016103f0565b61055786836105528785611edb565b610afe565b6105858287878760405180602001604052806000815250604051806020016040528060008152506000610ec2565b50600195945050505050565b61059b33866108e9565b6105b75760405162461bcd60e51b81526004016103f090611d38565b6105c685858585856001611096565b5050505050565b600054610100900460ff16806105e6575060005460ff16155b6106025760405162461bcd60e51b81526004016103f090611ca6565b600054610100900460ff16158015610624576000805461ffff19166101011790555b60408051600081526060810182526006602080830191825265414e5437373760d01b838501528351808501909452600384526210539560ea1b90840152909161066e919083611179565b606580546001600160a01b031916339081179091556106d09061068f601290565b61069d9060ff16600a611e14565b6106ab90633b9aca00611ebc565b60405180602001604052806000815250604051806020016040528060008152506111fa565b5080156106e3576000805461ff00191690555b50565b336001600160a01b038216141561074b5760405162461bcd60e51b8152602060048201526024808201527f4552433737373a20617574686f72697a696e672073656c66206173206f70657260448201526330ba37b960e11b60648201526084016103f0565b6001600160a01b03811660009081526038602052604090205460ff161561079c57336000908152603a602090815260408083206001600160a01b03851684529091529020805460ff191690556107cb565b3360009081526039602090815260408083206001600160a01b03851684529091529020805460ff191660011790555b60405133906001600160a01b038316907ff4caeb2d6ca8932a215a353d0703c326ec2d81fc68170f320eb2ab49e9df61f990600090a350565b60606036805461033490611ef2565b61083133848484604051806020016040528060008152506001611096565b505050565b60006001600160a01b03831661085e5760405162461bcd60e51b81526004016103f090611cf4565b600033905061088f818286866040518060200160405280600081525060405180602001604052806000815250610c25565b6108bb818286866040518060200160405280600081525060405180602001604052806000815250610d5c565b6103bc8182868660405180602001604052806000815250604051806020016040528060008152506000610ec2565b6000816001600160a01b0316836001600160a01b0316148061095457506001600160a01b03831660009081526038602052604090205460ff16801561095457506001600160a01b038083166000908152603a602090815260408083209387168352929052205460ff16155b8061098457506001600160a01b0380831660009081526039602090815260408083209387168352929052205460ff165b9392505050565b6001600160a01b0381163314156109ee5760405162461bcd60e51b815260206004820152602160248201527f4552433737373a207265766f6b696e672073656c66206173206f70657261746f6044820152603960f91b60648201526084016103f0565b6001600160a01b03811660009081526038602052604090205460ff1615610a4257336000908152603a602090815260408083206001600160a01b03851684529091529020805460ff19166001179055610a6e565b3360009081526039602090815260408083206001600160a01b03851684529091529020805460ff191690555b60405133906001600160a01b038316907f50546e66e5f44d728365dc3908c63bc5cfeeab470722c1677e3073a6ac294aa190600090a350565b610ab133856108e9565b610acd5760405162461bcd60e51b81526004016103f090611d38565b610ad984848484611208565b50505050565b610afa33838360405180602001604052806000815250611208565b5050565b6001600160a01b038316610b625760405162461bcd60e51b815260206004820152602560248201527f4552433737373a20617070726f76652066726f6d20746865207a65726f206164604482015264647265737360d81b60648201526084016103f0565b6001600160a01b038216610bc45760405162461bcd60e51b815260206004820152602360248201527f4552433737373a20617070726f766520746f20746865207a65726f206164647260448201526265737360e81b60648201526084016103f0565b6001600160a01b038381166000818152603b602090815260408083209487168084529482529182902085905590518481527f8c5be1e5ebec7d5bd14f71427d1e84f3dd0314c0f7b2291e5b200ac8c7c3b925910160405180910390a3505050565b60405163555ddc6560e11b81526001600160a01b03861660048201527f29ddb589b1fb5fc7cf394961c1adf5f8c6454761adf795e67fe149f658abe8956024820152600090731820a4b7618bde71dce8cdc73aab6c95905fad249063aabbb8ca9060440160206040518083038186803b158015610ca157600080fd5b505afa158015610cb5573d6000803e3d6000fd5b505050506040513d601f19601f82011682018060405250810190610cd99190611939565b90506001600160a01b03811615610d5357604051633ad5cbc160e11b81526001600160a01b038216906375ab978290610d20908a908a908a908a908a908a90600401611bec565b600060405180830381600087803b158015610d3a57600080fd5b505af1158015610d4e573d6000803e3d6000fd5b505050505b50505050505050565b6001600160a01b03851660009081526033602052604090205483811015610dd55760405162461bcd60e51b815260206004820152602760248201527f4552433737373a207472616e7366657220616d6f756e7420657863656564732060448201526662616c616e636560c81b60648201526084016103f0565b6001600160a01b03808716600090815260336020526040808220878503905591871681529081208054869290610e0c908490611db9565b92505081905550846001600160a01b0316866001600160a01b0316886001600160a01b03167f06b541ddaa720db2b10a4d0cdac39b8d360425fc073085fac19bc82614677987878787604051610e6493929190611d84565b60405180910390a4846001600160a01b0316866001600160a01b03167fddf252ad1be2c89b69c2b068fc378daa952ba7f163c4a11628f55a4df523b3ef86604051610eb191815260200190565b60405180910390a350505050505050565b60405163555ddc6560e11b81526001600160a01b03861660048201527fb281fc8c12954d22544db45de3159a39272895b169a852b314f9cc762e44c53b6024820152600090731820a4b7618bde71dce8cdc73aab6c95905fad249063aabbb8ca9060440160206040518083038186803b158015610f3e57600080fd5b505afa158015610f52573d6000803e3d6000fd5b505050506040513d601f19601f82011682018060405250810190610f769190611939565b90506001600160a01b03811615610ff2576040516223de2960e01b81526001600160a01b038216906223de2990610fbb908b908b908b908b908b908b90600401611bec565b600060405180830381600087803b158015610fd557600080fd5b505af1158015610fe9573d6000803e3d6000fd5b5050505061108c565b811561108c576001600160a01b0386163b1561108c5760405162461bcd60e51b815260206004820152604d60248201527f4552433737373a20746f6b656e20726563697069656e7420636f6e747261637460448201527f20686173206e6f20696d706c656d656e74657220666f7220455243373737546f60648201526c1ad95b9cd49958da5c1a595b9d609a1b608482015260a4016103f0565b5050505050505050565b6001600160a01b0386166110f75760405162461bcd60e51b815260206004820152602260248201527f4552433737373a2073656e642066726f6d20746865207a65726f206164647265604482015261737360f01b60648201526084016103f0565b6001600160a01b03851661114d5760405162461bcd60e51b815260206004820181905260248201527f4552433737373a2073656e6420746f20746865207a65726f206164647265737360448201526064016103f0565b3361115c818888888888610c25565b61116a818888888888610d5c565b610d5381888888888888610ec2565b600054610100900460ff1680611192575060005460ff16155b6111ae5760405162461bcd60e51b81526004016103f090611ca6565b600054610100900460ff161580156111d0576000805461ffff19166101011790555b6111d86113bd565b6111e3848484611428565b8015610ad9576000805461ff001916905550505050565b610ad984848484600161166b565b6001600160a01b0384166112695760405162461bcd60e51b815260206004820152602260248201527f4552433737373a206275726e2066726f6d20746865207a65726f206164647265604482015261737360f01b60648201526084016103f0565b3361127981866000878787610c25565b6001600160a01b038516600090815260336020526040902054848110156112ee5760405162461bcd60e51b815260206004820152602360248201527f4552433737373a206275726e20616d6f756e7420657863656564732062616c616044820152626e636560e81b60648201526084016103f0565b6001600160a01b038616600090815260336020526040812086830390556034805487929061131d908490611edb565b92505081905550856001600160a01b0316826001600160a01b03167fa78a9be3a7b862d26933ad85fb11d80ef66b8f972d7cbba06621d583943a409887878760405161136b93929190611d84565b60405180910390a36040518581526000906001600160a01b038816907fddf252ad1be2c89b69c2b068fc378daa952ba7f163c4a11628f55a4df523b3ef906020015b60405180910390a3505050505050565b600054610100900460ff16806113d6575060005460ff16155b6113f25760405162461bcd60e51b81526004016103f090611ca6565b600054610100900460ff16158015611414576000805461ffff19166101011790555b80156106e3576000805461ff001916905550565b600054610100900460ff1680611441575060005460ff16155b61145d5760405162461bcd60e51b81526004016103f090611ca6565b600054610100900460ff1615801561147f576000805461ffff19166101011790555b83516114929060359060208701906117a8565b5082516114a69060369060208601906117a8565b5081516114ba90603790602085019061182c565b5060005b8251811015611531576001603860008584815181106114ed57634e487b7160e01b600052603260045260246000fd5b6020908102919091018101516001600160a01b03168252810191909152604001600020805460ff19169115159190911790558061152981611f2d565b9150506114be565b506040516329965a1d60e01b815230600482018190527fac7fbab5f54a3ca8194167523c6753bfeb96a445279294b6125b68cce217705460248301526044820152731820a4b7618bde71dce8cdc73aab6c95905fad24906329965a1d90606401600060405180830381600087803b1580156115ab57600080fd5b505af11580156115bf573d6000803e3d6000fd5b50506040516329965a1d60e01b815230600482018190527faea199e31a596269b42cdafd93407f14436db6e4cad65417994c2eb37381e05a60248301526044820152731820a4b7618bde71dce8cdc73aab6c95905fad2492506329965a1d9150606401600060405180830381600087803b15801561163c57600080fd5b505af1158015611650573d6000803e3d6000fd5b505050508015610ad9576000805461ff001916905550505050565b6001600160a01b0385166116c15760405162461bcd60e51b815260206004820181905260248201527f4552433737373a206d696e7420746f20746865207a65726f206164647265737360448201526064016103f0565b600033905084603460008282546116d89190611db9565b90915550506001600160a01b03861660009081526033602052604081208054879290611705908490611db9565b9091555061171b90508160008888888888610ec2565b856001600160a01b0316816001600160a01b03167f2fe5be0146f74c5bce36c0b80911af6c7d86ff27e89d5cfa61fc681327954e5d87878760405161176293929190611d84565b60405180910390a36040518581526001600160a01b038716906000907fddf252ad1be2c89b69c2b068fc378daa952ba7f163c4a11628f55a4df523b3ef906020016113ad565b8280546117b490611ef2565b90600052602060002090601f0160209004810192826117d6576000855561181c565b82601f106117ef57805160ff191683800117855561181c565b8280016001018555821561181c579182015b8281111561181c578251825591602001919060010190611801565b50611828929150611881565b5090565b82805482825590600052602060002090810192821561181c579160200282015b8281111561181c57825182546001600160a01b0319166001600160a01b0390911617825560209092019160019091019061184c565b5b808211156118285760008155600101611882565b600082601f8301126118a6578081fd5b813567ffffffffffffffff808211156118c1576118c1611f5e565b604051601f8301601f19908116603f011681019082821181831017156118e9576118e9611f5e565b81604052838152866020858801011115611901578485fd5b8360208701602083013792830160200193909352509392505050565b60006020828403121561192e578081fd5b813561098481611f74565b60006020828403121561194a578081fd5b815161098481611f74565b60008060408385031215611967578081fd5b823561197281611f74565b9150602083013561198281611f74565b809150509250929050565b6000806000606084860312156119a1578081fd5b83356119ac81611f74565b925060208401356119bc81611f74565b929592945050506040919091013590565b600080600080600060a086880312156119e4578081fd5b85356119ef81611f74565b945060208601356119ff81611f74565b935060408601359250606086013567ffffffffffffffff80821115611a22578283fd5b611a2e89838a01611896565b93506080880135915080821115611a43578283fd5b50611a5088828901611896565b9150509295509295909350565b60008060408385031215611a6f578182fd5b8235611a7a81611f74565b946020939093013593505050565b600080600060608486031215611a9c578283fd5b8335611aa781611f74565b925060208401359150604084013567ffffffffffffffff811115611ac9578182fd5b611ad586828701611896565b9150509250925092565b60008060008060808587031215611af4578384fd5b8435611aff81611f74565b935060208501359250604085013567ffffffffffffffff80821115611b22578384fd5b611b2e88838901611896565b93506060870135915080821115611b43578283fd5b50611b5087828801611896565b91505092959194509250565b60008060408385031215611b6e578182fd5b82359150602083013567ffffffffffffffff811115611b8b578182fd5b611b9785828601611896565b9150509250929050565b60008151808452815b81811015611bc657602081850181015186830182015201611baa565b81811115611bd75782602083870101525b50601f01601f19169290920160200192915050565b6001600160a01b0387811682528681166020830152851660408201526060810184905260c060808201819052600090611c2790830185611ba1565b82810360a0840152611c398185611ba1565b9998505050505050505050565b6020808252825182820181905260009190848201906040850190845b81811015611c875783516001600160a01b031683529284019291840191600101611c62565b50909695505050505050565b6020815260006109846020830184611ba1565b6020808252602e908201527f496e697469616c697a61626c653a20636f6e747261637420697320616c72656160408201526d191e481a5b9a5d1a585b1a5e995960921b606082015260800190565b60208082526024908201527f4552433737373a207472616e7366657220746f20746865207a65726f206164646040820152637265737360e01b606082015260800190565b6020808252602c908201527f4552433737373a2063616c6c6572206973206e6f7420616e206f70657261746f60408201526b39103337b9103437b63232b960a11b606082015260800190565b838152606060208201526000611d9d6060830185611ba1565b8281036040840152611daf8185611ba1565b9695505050505050565b60008219821115611dcc57611dcc611f48565b500190565b600181815b80851115611e0c578160001904821115611df257611df2611f48565b80851615611dff57918102915b93841c9390800290611dd6565b509250929050565b60006109848383600082611e2a575060016103c2565b81611e37575060006103c2565b8160018114611e4d5760028114611e5757611e73565b60019150506103c2565b60ff841115611e6857611e68611f48565b50506001821b6103c2565b5060208310610133831016604e8410600b8410161715611e96575081810a6103c2565b611ea08383611dd1565b8060001904821115611eb457611eb4611f48565b029392505050565b6000816000190483118215151615611ed657611ed6611f48565b500290565b600082821015611eed57611eed611f48565b500390565b600181811c90821680611f0657607f821691505b60208210811415611f2757634e487b7160e01b600052602260045260246000fd5b50919050565b6000600019821415611f4157611f41611f48565b5060010190565b634e487b7160e01b600052601160045260246000fd5b634e487b7160e01b600052604160045260246000fd5b6001600160a01b03811681146106e357600080fdfea26469706673582212202f00423a561ac635d548ba7b0289a5c2caa4e1237fe052d0e0a72b648b2109c964736f6c63430008040033",
  "linkReferences": {},
  "deployedLinkReferences": {}
}