{
  "_format": "hh-sol-artifact-1",
  "contractName": "HSNToken",
  "sourceName": "contracts/HSNToken.sol",
  "abi": [
    {
      "anonymous": false,
      "inputs": [
        {
          "indexed": true,
          "internalType": "address",
          "name": "owner",
          "type": "address"
        },
        {
          "indexed": true,
          "internalType": "address",
          "name": "spender",
          "type": "address"
        },
        {
          "indexed": false,
          "internalType": "uint256",
          "name": "value",
          "type": "uint256"
        }
      ],
      "name": "Approval",
      "type": "event"
    },
    {
      "anonymous": false,
      "inputs": [
        {
          "indexed": true,
          "internalType": "address",
          "name": "from",
          "type": "address"
        },
        {
          "indexed": true,
          "internalType": "address",
          "name": "to",
          "type": "address"
        },
        {
          "indexed": false,
          "internalType": "uint256",
          "name": "value",
          "type": "uint256"
        }
      ],
      "name": "Transfer",
      "type": "event"
    },
    {
      "inputs": [
        {
          "internalType": "address",
          "name": "owner",
          "type": "address"
        },
        {
          "internalType": "address",
          "name": "spender",
          "type": "address"
        }
      ],
      "name": "allowance",
      "outputs": [
        {
          "internalType": "uint256",
          "name": "",
          "type": "uint256"
        }
      ],
      "stateMutability": "view",
      "type": "function"
    },
    {
      "inputs": [
        {
          "internalType": "address",
          "name": "spender",
          "type": "address"
        },
        {
          "internalType": "uint256",
          "name": "amount",
          "type": "uint256"
        }
      ],
      "name": "approve",
      "outputs": [
        {
          "internalType": "bool",
          "name": "",
          "type": "bool"
        }
      ],
      "stateMutability": "nonpayable",
      "type": "function"
    },
    {
      "inputs": [
        {
          "internalType": "address",
          "name": "account",
          "type": "address"
        }
      ],
      "name": "balanceOf",
      "outputs": [
        {
          "internalType": "uint256",
          "name": "",
          "type": "uint256"
        }
      ],
      "stateMutability": "view",
      "type": "function"
    },
    {
      "inputs": [],
      "name": "decimals",
      "outputs": [
        {
          "internalType": "uint8",
          "name": "",
          "type": "uint8"
        }
      ],
      "stateMutability": "view",
      "type": "function"
    },
    {
      "inputs": [
        {
          "internalType": "address",
          "name": "spender",
          "type": "address"
        },
        {
          "internalType": "uint256",
          "name": "subtractedValue",
          "type": "uint256"
        }
      ],
      "name": "decreaseAllowance",
      "outputs": [
        {
          "internalType": "bool",
          "name": "",
          "type": "bool"
        }
      ],
      "stateMutability": "nonpayable",
      "type": "function"
    },
    {
      "inputs": [
        {
          "internalType": "address",
          "name": "spender",
          "type": "address"
        },
        {
          "internalType": "uint256",
          "name": "addedValue",
          "type": "uint256"
        }
      ],
      "name": "increaseAllowance",
      "outputs": [
        {
          "internalType": "bool",
          "name": "",
          "type": "bool"
        }
      ],
      "stateMutability": "nonpayable",
      "type": "function"
    },
    {
      "inputs": [],
      "name": "initialize",
      "outputs": [],
      "stateMutability": "nonpayable",
      "type": "function"
    },
    {
      "inputs": [],
      "name": "mintMinerReward",
      "outputs": [],
      "stateMutability": "nonpayable",
      "type": "function"
    },
    {
      "inputs": [],
      "name": "name",
      "outputs": [
        {
          "internalType": "string",
          "name": "",
          "type": "string"
        }
      ],
      "stateMutability": "view",
      "type": "function"
    },
    {
      "inputs": [],
      "name": "symbol",
      "outputs": [
        {
          "internalType": "string",
          "name": "",
          "type": "string"
        }
      ],
      "stateMutability": "view",
      "type": "function"
    },
    {
      "inputs": [],
      "name": "totalSupply",
      "outputs": [
        {
          "internalType": "uint256",
          "name": "",
          "type": "uint256"
        }
      ],
      "stateMutability": "view",
      "type": "function"
    },
    {
      "inputs": [
        {
          "internalType": "address",
          "name": "recipient",
          "type": "address"
        },
        {
          "internalType": "uint256",
          "name": "amount",
          "type": "uint256"
        }
      ],
      "name": "transfer",
      "outputs": [
        {
          "internalType": "bool",
          "name": "",
          "type": "bool"
        }
      ],
      "stateMutability": "nonpayable",
      "type": "function"
    },
    {
      "inputs": [
        {
          "internalType": "address",
          "name": "sender",
          "type": "address"
        },
        {
          "internalType": "address",
          "name": "recipient",
          "type": "address"
        },
        {
          "internalType": "uint256",
          "name": "amount",
          "type": "uint256"
        }
      ],
      "name": "transferFrom",
      "outputs": [
        {
          "internalType": "bool",
          "name": "",
          "type": "bool"
        }
      ],
      "stateMutability": "nonpayable",
      "type": "function"
    }
  ],
  "bytecode": "0x608060405234801561001057600080fd5b50610e9f806100206000396000f3fe608060405234801561001057600080fd5b50600436106100cf5760003560e01c806370a082311161008c578063a457c2d711610066578063a457c2d714610197578063a9059cbb146101aa578063d63c88a6146101bd578063dd62ed3e146101c557600080fd5b806370a082311461015c5780638129fc1c1461018557806395d89b411461018f57600080fd5b806306fdde03146100d4578063095ea7b3146100f257806318160ddd1461011557806323b872dd14610127578063313ce5671461013a5780633950935114610149575b600080fd5b6100dc6101fe565b6040516100e99190610c55565b60405180910390f35b610105610100366004610c2c565b610290565b60405190151581526020016100e9565b6035545b6040519081526020016100e9565b610105610135366004610bf1565b6102a7565b604051601281526020016100e9565b610105610157366004610c2c565b610356565b61011961016a366004610b9e565b6001600160a01b031660009081526033602052604090205490565b61018d610392565b005b6100dc610485565b6101056101a5366004610c2c565b610494565b6101056101b8366004610c2c565b61052d565b61018d61053a565b6101196101d3366004610bbf565b6001600160a01b03918216600090815260346020908152604080832093909416825291909152205490565b60606036805461020d90610e18565b80601f016020809104026020016040519081016040528092919081815260200182805461023990610e18565b80156102865780601f1061025b57610100808354040283529160200191610286565b820191906000526020600020905b81548152906001019060200180831161026957829003601f168201915b5050505050905090565b600061029d338484610598565b5060015b92915050565b60006102b48484846106bc565b6001600160a01b03841660009081526034602090815260408083203384529091529020548281101561033e5760405162461bcd60e51b815260206004820152602860248201527f45524332303a207472616e7366657220616d6f756e74206578636565647320616044820152676c6c6f77616e636560c01b60648201526084015b60405180910390fd5b61034b8533858403610598565b506001949350505050565b3360008181526034602090815260408083206001600160a01b0387168452909152812054909161029d91859061038d908690610cf6565b610598565b600054610100900460ff16806103ab575060005460ff16155b6103c75760405162461bcd60e51b815260040161033590610ca8565b600054610100900460ff161580156103e9576000805461ffff19166101011790555b61042e6040518060400160405280600881526020016720a72a2a37b5b2b760c11b8152506040518060400160405280600381526020016210539560ea1b81525061088b565b606580546001600160a01b031916339081179091556104709061044f601290565b61045d9060ff16600a610d51565b61046b90633b9aca00610df9565b61090b565b8015610482576000805461ff00191690555b50565b60606037805461020d90610e18565b3360009081526034602090815260408083206001600160a01b0386168452909152812054828110156105165760405162461bcd60e51b815260206004820152602560248201527f45524332303a2064656372656173656420616c6c6f77616e63652062656c6f77604482015264207a65726f60d81b6064820152608401610335565b6105233385858403610598565b5060019392505050565b600061029d3384846106bc565b6065546001600160a01b0316331461058a5760405162461bcd60e51b81526020600482015260136024820152722cb7ba9030b932b713ba1030b71030b236b4b760691b6044820152606401610335565b610596416103e861090b565b565b6001600160a01b0383166105fa5760405162461bcd60e51b8152602060048201526024808201527f45524332303a20617070726f76652066726f6d20746865207a65726f206164646044820152637265737360e01b6064820152608401610335565b6001600160a01b03821661065b5760405162461bcd60e51b815260206004820152602260248201527f45524332303a20617070726f766520746f20746865207a65726f206164647265604482015261737360f01b6064820152608401610335565b6001600160a01b0383811660008181526034602090815260408083209487168084529482529182902085905590518481527f8c5be1e5ebec7d5bd14f71427d1e84f3dd0314c0f7b2291e5b200ac8c7c3b925910160405180910390a3505050565b6001600160a01b0383166107205760405162461bcd60e51b815260206004820152602560248201527f45524332303a207472616e736665722066726f6d20746865207a65726f206164604482015264647265737360d81b6064820152608401610335565b6001600160a01b0382166107825760405162461bcd60e51b815260206004820152602360248201527f45524332303a207472616e7366657220746f20746865207a65726f206164647260448201526265737360e81b6064820152608401610335565b6001600160a01b038316600090815260336020526040902054818110156107fa5760405162461bcd60e51b815260206004820152602660248201527f45524332303a207472616e7366657220616d6f756e7420657863656564732062604482015265616c616e636560d01b6064820152608401610335565b6001600160a01b03808516600090815260336020526040808220858503905591851681529081208054849290610831908490610cf6565b92505081905550826001600160a01b0316846001600160a01b03167fddf252ad1be2c89b69c2b068fc378daa952ba7f163c4a11628f55a4df523b3ef8460405161087d91815260200190565b60405180910390a350505050565b600054610100900460ff16806108a4575060005460ff16155b6108c05760405162461bcd60e51b815260040161033590610ca8565b600054610100900460ff161580156108e2576000805461ffff19166101011790555b6108ea6109ea565b6108f48383610a54565b8015610906576000805461ff00191690555b505050565b6001600160a01b0382166109615760405162461bcd60e51b815260206004820152601f60248201527f45524332303a206d696e7420746f20746865207a65726f2061646472657373006044820152606401610335565b80603560008282546109739190610cf6565b90915550506001600160a01b038216600090815260336020526040812080548392906109a0908490610cf6565b90915550506040518181526001600160a01b038316906000907fddf252ad1be2c89b69c2b068fc378daa952ba7f163c4a11628f55a4df523b3ef9060200160405180910390a35050565b600054610100900460ff1680610a03575060005460ff16155b610a1f5760405162461bcd60e51b815260040161033590610ca8565b600054610100900460ff16158015610470576000805461ffff19166101011790558015610482576000805461ff001916905550565b600054610100900460ff1680610a6d575060005460ff16155b610a895760405162461bcd60e51b815260040161033590610ca8565b600054610100900460ff16158015610aab576000805461ffff19166101011790555b8251610abe906036906020860190610ae9565b508151610ad2906037906020850190610ae9565b508015610906576000805461ff0019169055505050565b828054610af590610e18565b90600052602060002090601f016020900481019282610b175760008555610b5d565b82601f10610b3057805160ff1916838001178555610b5d565b82800160010185558215610b5d579182015b82811115610b5d578251825591602001919060010190610b42565b50610b69929150610b6d565b5090565b5b80821115610b695760008155600101610b6e565b80356001600160a01b0381168114610b9957600080fd5b919050565b600060208284031215610baf578081fd5b610bb882610b82565b9392505050565b60008060408385031215610bd1578081fd5b610bda83610b82565b9150610be860208401610b82565b90509250929050565b600080600060608486031215610c05578081fd5b610c0e84610b82565b9250610c1c60208501610b82565b9150604084013590509250925092565b60008060408385031215610c3e578182fd5b610c4783610b82565b946020939093013593505050565b6000602080835283518082850152825b81811015610c8157858101830151858201604001528201610c65565b81811115610c925783604083870101525b50601f01601f1916929092016040019392505050565b6020808252602e908201527f496e697469616c697a61626c653a20636f6e747261637420697320616c72656160408201526d191e481a5b9a5d1a585b1a5e995960921b606082015260800190565b60008219821115610d0957610d09610e53565b500190565b600181815b80851115610d49578160001904821115610d2f57610d2f610e53565b80851615610d3c57918102915b93841c9390800290610d13565b509250929050565b6000610bb88383600082610d67575060016102a1565b81610d74575060006102a1565b8160018114610d8a5760028114610d9457610db0565b60019150506102a1565b60ff841115610da557610da5610e53565b50506001821b6102a1565b5060208310610133831016604e8410600b8410161715610dd3575081810a6102a1565b610ddd8383610d0e565b8060001904821115610df157610df1610e53565b029392505050565b6000816000190483118215151615610e1357610e13610e53565b500290565b600181811c90821680610e2c57607f821691505b60208210811415610e4d57634e487b7160e01b600052602260045260246000fd5b50919050565b634e487b7160e01b600052601160045260246000fdfea26469706673582212202b59b3b3d77c0baf77d0746810653699664a022e9fa65dbe21a626cbbefb6d0b64736f6c63430008040033",
  "linkReferences": {},
  "deployedLinkReferences": {}
}